{
  "contractName": "RockPaper",
  "abi": [
    {
      "constant": false,
      "inputs": [],
      "name": "resume",
      "outputs": [],
      "payable": false,
      "stateMutability": "nonpayable",
      "type": "function"
    },
    {
      "constant": true,
      "inputs": [],
      "name": "getRunning",
      "outputs": [
        {
          "name": "",
          "type": "bool"
        }
      ],
      "payable": false,
      "stateMutability": "view",
      "type": "function"
    },
    {
      "constant": false,
      "inputs": [],
      "name": "kill",
      "outputs": [],
      "payable": false,
      "stateMutability": "nonpayable",
      "type": "function"
    },
    {
      "constant": true,
      "inputs": [
        {
          "name": "",
          "type": "address"
        }
      ],
      "name": "games",
      "outputs": [
        {
          "name": "wager",
          "type": "uint256"
        },
        {
          "name": "player1",
          "type": "address"
        },
        {
          "name": "guess1",
          "type": "bytes32"
        },
        {
          "name": "player2",
          "type": "address"
        },
        {
          "name": "guess2",
          "type": "uint8"
        }
      ],
      "payable": false,
      "stateMutability": "view",
      "type": "function"
    },
    {
      "constant": false,
      "inputs": [],
      "name": "pause",
      "outputs": [],
      "payable": false,
      "stateMutability": "nonpayable",
      "type": "function"
    },
    {
      "constant": true,
      "inputs": [],
      "name": "getOwner",
      "outputs": [
        {
          "name": "",
          "type": "address"
        }
      ],
      "payable": false,
      "stateMutability": "view",
      "type": "function"
    },
    {
      "constant": false,
      "inputs": [
        {
          "name": "newOwner",
          "type": "address"
        }
      ],
      "name": "changeOwner",
      "outputs": [
        {
          "name": "success",
          "type": "bool"
        }
      ],
      "payable": false,
      "stateMutability": "nonpayable",
      "type": "function"
    },
    {
      "constant": false,
      "inputs": [
        {
          "name": "newRunning",
          "type": "bool"
        }
      ],
      "name": "setRunning",
      "outputs": [],
      "payable": false,
      "stateMutability": "nonpayable",
      "type": "function"
    },
    {
      "constant": true,
      "inputs": [
        {
          "name": "",
          "type": "address"
        }
      ],
      "name": "winnings",
      "outputs": [
        {
          "name": "",
          "type": "uint256"
        }
      ],
      "payable": false,
      "stateMutability": "view",
      "type": "function"
    },
    {
      "inputs": [],
      "payable": false,
      "stateMutability": "nonpayable",
      "type": "constructor"
    },
    {
      "anonymous": false,
      "inputs": [
        {
          "indexed": true,
          "name": "player1",
          "type": "address"
        },
        {
          "indexed": false,
          "name": "wager",
          "type": "uint256"
        },
        {
          "indexed": false,
          "name": "guess1",
          "type": "bytes32"
        }
      ],
      "name": "LogGameCreated",
      "type": "event"
    },
    {
      "anonymous": false,
      "inputs": [
        {
          "indexed": true,
          "name": "player1",
          "type": "address"
        },
        {
          "indexed": true,
          "name": "player2",
          "type": "address"
        },
        {
          "indexed": false,
          "name": "wager",
          "type": "uint256"
        },
        {
          "indexed": false,
          "name": "guess1",
          "type": "bytes32"
        },
        {
          "indexed": false,
          "name": "guess2",
          "type": "uint8"
        }
      ],
      "name": "LogGameCompleted",
      "type": "event"
    },
    {
      "anonymous": false,
      "inputs": [
        {
          "indexed": true,
          "name": "player1",
          "type": "address"
        },
        {
          "indexed": true,
          "name": "player2",
          "type": "address"
        },
        {
          "indexed": true,
          "name": "winner",
          "type": "address"
        },
        {
          "indexed": false,
          "name": "wager",
          "type": "uint256"
        },
        {
          "indexed": false,
          "name": "guess1",
          "type": "bytes32"
        },
        {
          "indexed": false,
          "name": "guess2",
          "type": "uint8"
        }
      ],
      "name": "LogGameSettled",
      "type": "event"
    },
    {
      "anonymous": false,
      "inputs": [
        {
          "indexed": false,
          "name": "oldRunning",
          "type": "bool"
        },
        {
          "indexed": false,
          "name": "newRunning",
          "type": "bool"
        }
      ],
      "name": "LogRunningChanged",
      "type": "event"
    },
    {
      "anonymous": false,
      "inputs": [
        {
          "indexed": true,
          "name": "oldOwner",
          "type": "address"
        },
        {
          "indexed": true,
          "name": "newOwner",
          "type": "address"
        }
      ],
      "name": "LogOwnerChanged",
      "type": "event"
    },
    {
      "constant": true,
      "inputs": [
        {
          "name": "guess",
          "type": "uint8"
        },
        {
          "name": "seed",
          "type": "bytes32"
        }
      ],
      "name": "encodeGuess",
      "outputs": [
        {
          "name": "",
          "type": "bytes32"
        }
      ],
      "payable": false,
      "stateMutability": "pure",
      "type": "function"
    },
    {
      "constant": false,
      "inputs": [
        {
          "name": "guess",
          "type": "bytes32"
        }
      ],
      "name": "createGame",
      "outputs": [],
      "payable": true,
      "stateMutability": "payable",
      "type": "function"
    },
    {
      "constant": false,
      "inputs": [
        {
          "name": "game",
          "type": "address"
        },
        {
          "name": "guess",
          "type": "uint8"
        }
      ],
      "name": "joinGame",
      "outputs": [],
      "payable": true,
      "stateMutability": "payable",
      "type": "function"
    },
    {
      "constant": false,
      "inputs": [
        {
          "name": "guess",
          "type": "uint8"
        },
        {
          "name": "seed",
          "type": "bytes32"
        }
      ],
      "name": "settleGame",
      "outputs": [],
      "payable": false,
      "stateMutability": "nonpayable",
      "type": "function"
    }
  ],
  "bytecode": "0x6080604052606060405190810160405280606060405190810160405280600060038111156200002a57fe5b60038111156200003657fe5b8152602001600260038111156200004957fe5b60038111156200005557fe5b8152602001600160038111156200006857fe5b60038111156200007457fe5b8152508152602001606060405190810160405280600260038111156200009657fe5b6003811115620000a257fe5b815260200160006003811115620000b557fe5b6003811115620000c157fe5b8152602001600380811115620000d357fe5b6003811115620000df57fe5b8152508152602001606060405190810160405280600160038111156200010157fe5b60038111156200010d57fe5b81526020016003808111156200011f57fe5b60038111156200012b57fe5b8152602001600060038111156200013e57fe5b60038111156200014a57fe5b815250815250600390600362000162929190620001d4565b503480156200017057600080fd5b506001336000806101000a81548173ffffffffffffffffffffffffffffffffffffffff021916908373ffffffffffffffffffffffffffffffffffffffff16021790555080600060146101000a81548160ff021916908315150217905550506200033e565b826003810192821562000216579160200282015b8281111562000215578251829060036200020492919062000229565b5091602001919060010190620001e8565b5b509050620002259190620002d3565b5090565b826003601f01602090048101928215620002c05791602002820160005b838211156200028f57835183826101000a81548160ff021916908360038111156200026d57fe5b0217905550926020019260010160208160000104928301926001030262000246565b8015620002be5782816101000a81549060ff02191690556001016020816000010492830192600103026200028f565b505b509050620002cf919062000304565b5090565b6200030191905b80821115620002fd5760008181620002f3919062000337565b50600101620002da565b5090565b90565b6200033491905b808211156200033057600081816101000a81549060ff0219169055506001016200030b565b5090565b90565b5060009055565b611a31806200034e6000396000f3fe6080604052600436106100c5576000357c0100000000000000000000000000000000000000000000000000000000900463ffffffff168063046f7da2146100ca5780633924f089146100e157806341c0e1b514610110578063457391e5146101275780635f78a4b4146101555780636d8101641461019d57806379131a19146101f95780638456cb59146102d8578063893d20e8146102ef578063a6f9dae114610346578063d0a572b4146103af578063dfd200c514610400578063ea3a14991461043d575b600080fd5b3480156100d657600080fd5b506100df6104a2565b005b3480156100ed57600080fd5b506100f6610533565b604051808215151515815260200191505060405180910390f35b34801561011c57600080fd5b50610125610549565b005b6101536004803603602081101561013d57600080fd5b81019080803590602001909291905050506106ab565b005b34801561016157600080fd5b5061019b6004803603604081101561017857600080fd5b81019080803560ff169060200190929190803590602001909291905050506109e4565b005b3480156101a957600080fd5b506101e3600480360360408110156101c057600080fd5b81019080803560ff16906020019092919080359060200190929190505050610ec0565b6040518082815260200191505060405180910390f35b34801561020557600080fd5b506102486004803603602081101561021c57600080fd5b81019080803573ffffffffffffffffffffffffffffffffffffffff169060200190929190505050610f37565b604051808681526020018573ffffffffffffffffffffffffffffffffffffffff1673ffffffffffffffffffffffffffffffffffffffff1681526020018481526020018373ffffffffffffffffffffffffffffffffffffffff1673ffffffffffffffffffffffffffffffffffffffff1681526020018260ff1660ff1681526020019550505050505060405180910390f35b3480156102e457600080fd5b506102ed610fba565b005b3480156102fb57600080fd5b5061030461104a565b604051808273ffffffffffffffffffffffffffffffffffffffff1673ffffffffffffffffffffffffffffffffffffffff16815260200191505060405180910390f35b34801561035257600080fd5b506103956004803603602081101561036957600080fd5b81019080803573ffffffffffffffffffffffffffffffffffffffff169060200190929190505050611073565b604051808215151515815260200191505060405180910390f35b6103fe600480360360408110156103c557600080fd5b81019080803573ffffffffffffffffffffffffffffffffffffffff169060200190929190803560ff169060200190929190505050611367565b005b34801561040c57600080fd5b5061043b6004803603602081101561042357600080fd5b8101908080351515906020019092919050505061165a565b005b34801561044957600080fd5b5061048c6004803603602081101561046057600080fd5b81019080803573ffffffffffffffffffffffffffffffffffffffff169060200190929190505050611791565b6040518082815260200191505060405180910390f35b600060149054906101000a900460ff16151515610527576040517f08c379a000000000000000000000000000000000000000000000000000000000815260040180806020018281038252600d8152602001807f576520617265207061757365640000000000000000000000000000000000000081525060200191505060405180910390fd5b610531600161165a565b565b60008060149054906101000a900460ff16905090565b6000809054906101000a900473ffffffffffffffffffffffffffffffffffffffff1673ffffffffffffffffffffffffffffffffffffffff163373ffffffffffffffffffffffffffffffffffffffff1614151561060d576040517f08c379a00000000000000000000000000000000000000000000000000000000081526004018080602001828103825260198152602001807f4f776e6572207065726d697373696f6e2072657175697265640000000000000081525060200191505060405180910390fd5b600060149054906101000a900460ff16151515610692576040517f08c379a000000000000000000000000000000000000000000000000000000000815260040180806020018281038252600d8152602001807f576520617265207061757365640000000000000000000000000000000000000081525060200191505060405180910390fd5b3373ffffffffffffffffffffffffffffffffffffffff16ff5b600073ffffffffffffffffffffffffffffffffffffffff16600260003373ffffffffffffffffffffffffffffffffffffffff1673ffffffffffffffffffffffffffffffffffffffff16815260200190815260200160002060010160009054906101000a900473ffffffffffffffffffffffffffffffffffffffff1673ffffffffffffffffffffffffffffffffffffffff161415156107b1576040517f08c379a00000000000000000000000000000000000000000000000000000000081526004018080602001828103825260138152602001807f47616d6520616c7265616479206578697374730000000000000000000000000081525060200191505060405180910390fd5b6000816001900411151561082d576040517f08c379a000000000000000000000000000000000000000000000000000000000815260040180806020018281038252600d8152602001807f496e76616c69642067756573730000000000000000000000000000000000000081525060200191505060405180910390fd5b60a0604051908101604052803481526020013373ffffffffffffffffffffffffffffffffffffffff168152602001828152602001600073ffffffffffffffffffffffffffffffffffffffff168152602001600060ff16815250600260003373ffffffffffffffffffffffffffffffffffffffff1673ffffffffffffffffffffffffffffffffffffffff1681526020019081526020016000206000820151816000015560208201518160010160006101000a81548173ffffffffffffffffffffffffffffffffffffffff021916908373ffffffffffffffffffffffffffffffffffffffff1602179055506040820151816002015560608201518160030160006101000a81548173ffffffffffffffffffffffffffffffffffffffff021916908373ffffffffffffffffffffffffffffffffffffffff16021790555060808201518160030160146101000a81548160ff021916908360ff1602179055509050503373ffffffffffffffffffffffffffffffffffffffff167f7d1d7451af0cb274dee46fcd7a9dc44ca98936407f48bdfd7a83a36422046e303483604051808381526020018281526020019250505060405180910390a250565b6000600260003373ffffffffffffffffffffffffffffffffffffffff1673ffffffffffffffffffffffffffffffffffffffff1681526020019081526020016000209050610a30816117a9565b1515610aa4576040517f08c379a00000000000000000000000000000000000000000000000000000000081526004018080602001828103825260108152602001807f4e6f7420612076616c69642067616d650000000000000000000000000000000081525060200191505060405180910390fd5b3373ffffffffffffffffffffffffffffffffffffffff168160010160009054906101000a900473ffffffffffffffffffffffffffffffffffffffff1673ffffffffffffffffffffffffffffffffffffffff16141515610b6b576040517f08c379a000000000000000000000000000000000000000000000000000000000815260040180806020018281038252600d8152602001807f4e6f7420796f75722067616d650000000000000000000000000000000000000081525060200191505060405180910390fd5b6000826001900414151515610be8576040517f08c379a000000000000000000000000000000000000000000000000000000000815260040180806020018281038252600c8152602001807f496e76616c69642073656564000000000000000000000000000000000000000081525060200191505060405180910390fd5b610bf28383610ec0565b8160020154141515610c6c576040517f08c379a000000000000000000000000000000000000000000000000000000000815260040180806020018281038252600d8152602001807f496e76616c69642067756573730000000000000000000000000000000000000081525060200191505060405180910390fd5b6000610c788285611848565b9050610cd08260000154600160008473ffffffffffffffffffffffffffffffffffffffff1673ffffffffffffffffffffffffffffffffffffffff1681526020019081526020016000205461194290919063ffffffff16565b600160008373ffffffffffffffffffffffffffffffffffffffff1673ffffffffffffffffffffffffffffffffffffffff16815260200190815260200160002081905550600260003373ffffffffffffffffffffffffffffffffffffffff1673ffffffffffffffffffffffffffffffffffffffff1681526020019081526020016000206000808201600090556001820160006101000a81549073ffffffffffffffffffffffffffffffffffffffff021916905560028201600090556003820160006101000a81549073ffffffffffffffffffffffffffffffffffffffff02191690556003820160146101000a81549060ff021916905550508073ffffffffffffffffffffffffffffffffffffffff168260030160009054906101000a900473ffffffffffffffffffffffffffffffffffffffff1673ffffffffffffffffffffffffffffffffffffffff168360010160009054906101000a900473ffffffffffffffffffffffffffffffffffffffff1673ffffffffffffffffffffffffffffffffffffffff167fe707fa0bd5e9a02c1904c2e1c844a2618258265a1b02aeecf3939d1d1d5bb824856000015486600201548760030160149054906101000a900460ff16604051808481526020018381526020018260ff1660ff168152602001935050505060405180910390a450505050565b60008260ff166003811115610ed157fe5b8260405160200180836003811115610ee557fe5b60ff167f01000000000000000000000000000000000000000000000000000000000000000281526001018281526020019250505060405160208183030381529060405280519060200120905092915050565b60026020528060005260406000206000915090508060000154908060010160009054906101000a900473ffffffffffffffffffffffffffffffffffffffff16908060020154908060030160009054906101000a900473ffffffffffffffffffffffffffffffffffffffff16908060030160149054906101000a900460ff16905085565b600060149054906101000a900460ff16151561103e576040517f08c379a000000000000000000000000000000000000000000000000000000000815260040180806020018281038252600f8152602001807f576520686176652073746f70706564000000000000000000000000000000000081525060200191505060405180910390fd5b611048600061165a565b565b60008060009054906101000a900473ffffffffffffffffffffffffffffffffffffffff16905090565b60008060009054906101000a900473ffffffffffffffffffffffffffffffffffffffff1673ffffffffffffffffffffffffffffffffffffffff163373ffffffffffffffffffffffffffffffffffffffff16141515611139576040517f08c379a00000000000000000000000000000000000000000000000000000000081526004018080602001828103825260198152602001807f4f776e6572207065726d697373696f6e2072657175697265640000000000000081525060200191505060405180910390fd5b600073ffffffffffffffffffffffffffffffffffffffff168273ffffffffffffffffffffffffffffffffffffffff16141515156111de576040517f08c379a00000000000000000000000000000000000000000000000000000000081526004018080602001828103825260108152602001807f496e76616c6964206e65774f776e65720000000000000000000000000000000081525060200191505060405180910390fd5b6000809054906101000a900473ffffffffffffffffffffffffffffffffffffffff1673ffffffffffffffffffffffffffffffffffffffff168273ffffffffffffffffffffffffffffffffffffffff16141515156112a3576040517f08c379a000000000000000000000000000000000000000000000000000000000815260040180806020018281038252600a8152602001807f53616d65206f776e65720000000000000000000000000000000000000000000081525060200191505060405180910390fd5b8173ffffffffffffffffffffffffffffffffffffffff166000809054906101000a900473ffffffffffffffffffffffffffffffffffffffff1673ffffffffffffffffffffffffffffffffffffffff167ffcf23a92150d56e85e3a3d33b357493246e55783095eb6a733eb8439ffc752c860405160405180910390a3816000806101000a81548173ffffffffffffffffffffffffffffffffffffffff021916908373ffffffffffffffffffffffffffffffffffffffff16021790555060019050919050565b6000600260008473ffffffffffffffffffffffffffffffffffffffff1673ffffffffffffffffffffffffffffffffffffffff1681526020019081526020016000209050600073ffffffffffffffffffffffffffffffffffffffff168160010160009054906101000a900473ffffffffffffffffffffffffffffffffffffffff1673ffffffffffffffffffffffffffffffffffffffff1614151515611473576040517f08c379a00000000000000000000000000000000000000000000000000000000081526004018080602001828103825260138152602001807f47616d6520646f65736e2774206578697374730000000000000000000000000081525060200191505060405180910390fd5b6000600381111561148057fe5b60ff168260ff161180156114a5575060038081111561149b57fe5b60ff168260ff1611155b1515611519576040517f08c379a00000000000000000000000000000000000000000000000000000000081526004018080602001828103825260098152602001807f426164206775657373000000000000000000000000000000000000000000000081525060200191505060405180910390fd5b338160030160006101000a81548173ffffffffffffffffffffffffffffffffffffffff021916908373ffffffffffffffffffffffffffffffffffffffff160217905550818160030160146101000a81548160ff021916908360ff1602179055508060030160009054906101000a900473ffffffffffffffffffffffffffffffffffffffff1673ffffffffffffffffffffffffffffffffffffffff168160010160009054906101000a900473ffffffffffffffffffffffffffffffffffffffff1673ffffffffffffffffffffffffffffffffffffffff167f5e42305796e4d8e445ac68ddf4168da36e4dc8e2d6223639bdc6d63cb5e91e29836000015484600201548560030160149054906101000a900460ff16604051808481526020018381526020018260ff1660ff168152602001935050505060405180910390a3505050565b6000809054906101000a900473ffffffffffffffffffffffffffffffffffffffff1673ffffffffffffffffffffffffffffffffffffffff163373ffffffffffffffffffffffffffffffffffffffff1614151561171e576040517f08c379a00000000000000000000000000000000000000000000000000000000081526004018080602001828103825260198152602001807f4f776e6572207065726d697373696f6e2072657175697265640000000000000081525060200191505060405180910390fd5b7f558114f08c3fa972f3c6f08ee953dad136365321ef1df7646cea5054146ef068600060149054906101000a900460ff16826040518083151515158152602001821515151581526020019250505060405180910390a180600060146101000a81548160ff02191690831515021790555050565b60016020528060005260406000206000915090505481565b60006117d88260010160009054906101000a900473ffffffffffffffffffffffffffffffffffffffff166119cc565b801561180d575061180c8260030160009054906101000a900473ffffffffffffffffffffffffffffffffffffffff166119cc565b5b801561182157506000826002015460019004115b8015611841575060008260030160149054906101000a900460ff1660ff16115b9050919050565b60008260030160149054906101000a900460ff1660ff168260ff16141515611937578160ff16600381111561187957fe5b600381111561188457fe5b60038360ff1660038110151561189657fe5b018460030160149054906101000a900460ff1660ff166003811015156118b857fe5b602091828204019190069054906101000a900460ff1660038111156118d957fe5b141561190b578260010160009054906101000a900473ffffffffffffffffffffffffffffffffffffffff16905061193c565b8260030160009054906101000a900473ffffffffffffffffffffffffffffffffffffffff16905061193c565b600090505b92915050565b60008082840190508381101515156119c2576040517f08c379a000000000000000000000000000000000000000000000000000000000815260040180806020018281038252601b8152602001807f536166654d6174683a206164646974696f6e206f766572666c6f77000000000081525060200191505060405180910390fd5b8091505092915050565b60008073ffffffffffffffffffffffffffffffffffffffff168273ffffffffffffffffffffffffffffffffffffffff161415905091905056fea165627a7a72305820f1a78987c06acdfc56e0b5e874c3668addf3ff18579683975333c9713e7f189f0029",
  "source": "pragma solidity 0.5.0;\r\nimport \"./Running.sol\";\r\nimport \"./SafeMath.sol\";\r\n\r\npragma solidity 0.5.0;\r\n\r\ncontract RockPaper is Running\r\n{\r\n    using SafeMath for uint256;\r\n    mapping(address => uint) public winnings;\r\n    mapping(address => Game) public games;\r\n\r\n    enum Guess {NONE, ROCK, PAPER, SCISSORS}\r\n    Guess[3][3] matrix =\r\n    [\r\n        [Guess.NONE, Guess.PAPER, Guess.ROCK],\r\n        [Guess.PAPER, Guess.NONE, Guess.SCISSORS],\r\n        [Guess.ROCK, Guess.SCISSORS, Guess.NONE]\r\n    ];\r\n\r\n    struct Game\r\n    {\r\n        uint wager;\r\n        address player1;\r\n        bytes32 guess1;\r\n        address player2;\r\n        uint8 guess2;\r\n    }\r\n\r\n    event LogGameCreated(address indexed player1, uint wager, bytes32 guess1);\r\n    event LogGameCompleted(address indexed player1, address indexed player2, uint wager, bytes32 guess1, uint8 guess2);\r\n    event LogGameSettled(address indexed player1, address indexed player2, address indexed winner, uint wager, bytes32 guess1, uint8 guess2);\r\n\r\n    constructor()\r\n        public\r\n        Running(true)\r\n    {\r\n\r\n    }\r\n\r\n    // A player would need to pass this through to createGame()\r\n    function encodeGuess(uint8 guess, bytes32 seed)\r\n        public\r\n        pure\r\n        returns (bytes32)\r\n    {\r\n        return keccak256(abi.encodePacked(Guess(guess), seed));\r\n    }\r\n\r\n    // A player creates a game, they send their guess encoded using encodeGuess\r\n    // They would send value, which is optional, this would create a game\r\n    function createGame(bytes32 guess)\r\n        public\r\n        payable\r\n    {\r\n        require(games[msg.sender].player1 == address(0x0), 'Game already exists');\r\n        require(uint(guess) > 0, 'Invalid guess');\r\n\r\n        games[msg.sender] = Game( { wager: msg.value,\r\n                                    player1: msg.sender,\r\n                                    guess1: guess,\r\n                                    player2: address(0x0),\r\n                                    guess2: 0} );\r\n\r\n        emit LogGameCreated(msg.sender, msg.value, guess);\r\n    }\r\n\r\n    // A second player would join a game, the send a guess which isn't encoded\r\n    // They would also send value, which is optional, this would close the game\r\n    function joinGame(address game, uint8 guess)\r\n        public\r\n        payable\r\n    {\r\n        Game storage g = games[game];\r\n        require(g.player1 != address(0x0), \"Game doesn't exists\");\r\n        require(guess > uint8(Guess.NONE) && guess <= uint8(Guess.SCISSORS), 'Bad guess');\r\n\r\n        g.player2 = msg.sender;\r\n        g.guess2 = guess;\r\n\r\n        emit LogGameCompleted(g.player1, g.player2, g.wager, g.guess1, g.guess2);\r\n    }\r\n\r\n    // The game owner now has to settle the game, in other words reveals their guess to the network\r\n    // This is then checked with what they had guessed in creating the game\r\n    // There is a danger they will never settle the game and lock the funds.  TODO\r\n    function settleGame(uint8 guess, bytes32 seed)\r\n        public\r\n    {\r\n        Game storage g = games[msg.sender];\r\n        require(validGame(g), 'Not a valid game');\r\n        require(g.player1 == msg.sender, 'Not your game');\r\n        require(uint(seed) != 0, 'Invalid seed');\r\n        require(g.guess1 == encodeGuess(guess, seed), 'Invalid guess');\r\n\r\n        address winner = determineWinner(g, guess);\r\n        winnings[winner] = winnings[winner].add(g.wager);\r\n        delete games[msg.sender];\r\n\r\n        emit LogGameSettled(g.player1, g.player2, winner, g.wager, g.guess1, g.guess2);\r\n    }\r\n\r\n    function determineWinner(Game storage g, uint8 guess)\r\n        private\r\n        view\r\n        returns (address)\r\n    {\r\n        if (guess != g.guess2)\r\n        {\r\n            if (matrix[guess][g.guess2] == Guess(guess))\r\n            {\r\n                return g.player1;\r\n            }\r\n            \r\n            return g.player2;\r\n        }\r\n        \r\n        return address(0x0);\r\n    }\r\n\r\n    function validGame(Game storage g)\r\n        private\r\n        view\r\n        returns (bool)\r\n    {\r\n        return  validAddress(g.player1) && \r\n                validAddress(g.player2) &&\r\n                uint(g.guess1) > 0 &&\r\n                g.guess2 > 0;\r\n    }\r\n\r\n    function validAddress(address addr)\r\n        private\r\n        pure\r\n        returns (bool)\r\n    {\r\n        return addr != address(0x0);\r\n    }\r\n}",
  "sourcePath": "/Users/andy/Documents/GitHub/rockpaper/contracts/RockPaper.sol",
  "compiler": {
    "name": "solc",
    "version": "0.5.0+commit.1d4f565a.Emscripten.clang"
  },
  "schemaVersion": "3.0.3",
  "updatedAt": "2019-05-23T21:28:10.013Z",
  "devdoc": {
    "methods": {}
  },
  "userdoc": {
    "methods": {}
  }
}