{
  "contractName": "Running",
  "abi": [
    {
      "constant": true,
      "inputs": [],
      "name": "getOwner",
      "outputs": [
        {
          "name": "",
          "type": "address"
        }
      ],
      "payable": false,
      "stateMutability": "view",
      "type": "function"
    },
    {
      "constant": false,
      "inputs": [
        {
          "name": "newOwner",
          "type": "address"
        }
      ],
      "name": "changeOwner",
      "outputs": [
        {
          "name": "success",
          "type": "bool"
        }
      ],
      "payable": false,
      "stateMutability": "nonpayable",
      "type": "function"
    },
    {
      "inputs": [
        {
          "name": "_running",
          "type": "bool"
        }
      ],
      "payable": false,
      "stateMutability": "nonpayable",
      "type": "constructor"
    },
    {
      "anonymous": false,
      "inputs": [
        {
          "indexed": false,
          "name": "oldRunning",
          "type": "bool"
        },
        {
          "indexed": false,
          "name": "newRunning",
          "type": "bool"
        }
      ],
      "name": "LogRunningChanged",
      "type": "event"
    },
    {
      "anonymous": false,
      "inputs": [
        {
          "indexed": true,
          "name": "oldOwner",
          "type": "address"
        },
        {
          "indexed": true,
          "name": "newOwner",
          "type": "address"
        }
      ],
      "name": "LogOwnerChanged",
      "type": "event"
    },
    {
      "constant": true,
      "inputs": [],
      "name": "getRunning",
      "outputs": [
        {
          "name": "",
          "type": "bool"
        }
      ],
      "payable": false,
      "stateMutability": "view",
      "type": "function"
    },
    {
      "constant": false,
      "inputs": [],
      "name": "pause",
      "outputs": [],
      "payable": false,
      "stateMutability": "nonpayable",
      "type": "function"
    },
    {
      "constant": false,
      "inputs": [],
      "name": "resume",
      "outputs": [],
      "payable": false,
      "stateMutability": "nonpayable",
      "type": "function"
    },
    {
      "constant": false,
      "inputs": [
        {
          "name": "newRunning",
          "type": "bool"
        }
      ],
      "name": "setRunning",
      "outputs": [],
      "payable": false,
      "stateMutability": "nonpayable",
      "type": "function"
    },
    {
      "constant": false,
      "inputs": [],
      "name": "kill",
      "outputs": [],
      "payable": false,
      "stateMutability": "nonpayable",
      "type": "function"
    }
  ],
  "bytecode": "0x608060405234801561001057600080fd5b506040516020806109bd8339810180604052602081101561003057600080fd5b8101908080519060200190929190505050336000806101000a81548173ffffffffffffffffffffffffffffffffffffffff021916908373ffffffffffffffffffffffffffffffffffffffff16021790555080600060146101000a81548160ff02191690831515021790555050610912806100ab6000396000f3fe608060405260043610610083576000357c0100000000000000000000000000000000000000000000000000000000900463ffffffff168063046f7da2146100885780633924f0891461009f57806341c0e1b5146100ce5780638456cb59146100e5578063893d20e8146100fc578063a6f9dae114610153578063dfd200c5146101bc575b600080fd5b34801561009457600080fd5b5061009d6101f9565b005b3480156100ab57600080fd5b506100b461028a565b604051808215151515815260200191505060405180910390f35b3480156100da57600080fd5b506100e36102a0565b005b3480156100f157600080fd5b506100fa610402565b005b34801561010857600080fd5b50610111610492565b604051808273ffffffffffffffffffffffffffffffffffffffff1673ffffffffffffffffffffffffffffffffffffffff16815260200191505060405180910390f35b34801561015f57600080fd5b506101a26004803603602081101561017657600080fd5b81019080803573ffffffffffffffffffffffffffffffffffffffff1690602001909291905050506104bb565b604051808215151515815260200191505060405180910390f35b3480156101c857600080fd5b506101f7600480360360208110156101df57600080fd5b810190808035151590602001909291905050506107af565b005b600060149054906101000a900460ff1615151561027e576040517f08c379a000000000000000000000000000000000000000000000000000000000815260040180806020018281038252600d8152602001807f576520617265207061757365640000000000000000000000000000000000000081525060200191505060405180910390fd5b61028860016107af565b565b60008060149054906101000a900460ff16905090565b6000809054906101000a900473ffffffffffffffffffffffffffffffffffffffff1673ffffffffffffffffffffffffffffffffffffffff163373ffffffffffffffffffffffffffffffffffffffff16141515610364576040517f08c379a00000000000000000000000000000000000000000000000000000000081526004018080602001828103825260198152602001807f4f776e6572207065726d697373696f6e2072657175697265640000000000000081525060200191505060405180910390fd5b600060149054906101000a900460ff161515156103e9576040517f08c379a000000000000000000000000000000000000000000000000000000000815260040180806020018281038252600d8152602001807f576520617265207061757365640000000000000000000000000000000000000081525060200191505060405180910390fd5b3373ffffffffffffffffffffffffffffffffffffffff16ff5b600060149054906101000a900460ff161515610486576040517f08c379a000000000000000000000000000000000000000000000000000000000815260040180806020018281038252600f8152602001807f576520686176652073746f70706564000000000000000000000000000000000081525060200191505060405180910390fd5b61049060006107af565b565b60008060009054906101000a900473ffffffffffffffffffffffffffffffffffffffff16905090565b60008060009054906101000a900473ffffffffffffffffffffffffffffffffffffffff1673ffffffffffffffffffffffffffffffffffffffff163373ffffffffffffffffffffffffffffffffffffffff16141515610581576040517f08c379a00000000000000000000000000000000000000000000000000000000081526004018080602001828103825260198152602001807f4f776e6572207065726d697373696f6e2072657175697265640000000000000081525060200191505060405180910390fd5b600073ffffffffffffffffffffffffffffffffffffffff168273ffffffffffffffffffffffffffffffffffffffff1614151515610626576040517f08c379a00000000000000000000000000000000000000000000000000000000081526004018080602001828103825260108152602001807f496e76616c6964206e65774f776e65720000000000000000000000000000000081525060200191505060405180910390fd5b6000809054906101000a900473ffffffffffffffffffffffffffffffffffffffff1673ffffffffffffffffffffffffffffffffffffffff168273ffffffffffffffffffffffffffffffffffffffff16141515156106eb576040517f08c379a000000000000000000000000000000000000000000000000000000000815260040180806020018281038252600a8152602001807f53616d65206f776e65720000000000000000000000000000000000000000000081525060200191505060405180910390fd5b8173ffffffffffffffffffffffffffffffffffffffff166000809054906101000a900473ffffffffffffffffffffffffffffffffffffffff1673ffffffffffffffffffffffffffffffffffffffff167ffcf23a92150d56e85e3a3d33b357493246e55783095eb6a733eb8439ffc752c860405160405180910390a3816000806101000a81548173ffffffffffffffffffffffffffffffffffffffff021916908373ffffffffffffffffffffffffffffffffffffffff16021790555060019050919050565b6000809054906101000a900473ffffffffffffffffffffffffffffffffffffffff1673ffffffffffffffffffffffffffffffffffffffff163373ffffffffffffffffffffffffffffffffffffffff16141515610873576040517f08c379a00000000000000000000000000000000000000000000000000000000081526004018080602001828103825260198152602001807f4f776e6572207065726d697373696f6e2072657175697265640000000000000081525060200191505060405180910390fd5b7f558114f08c3fa972f3c6f08ee953dad136365321ef1df7646cea5054146ef068600060149054906101000a900460ff16826040518083151515158152602001821515151581526020019250505060405180910390a180600060146101000a81548160ff0219169083151502179055505056fea165627a7a72305820b64ca182982c6bcfd1b80941cbf4d57bd9239236003234c74c9eb01073f575760029",
  "source": "pragma solidity 0.5.0;\r\nimport \"./Owned.sol\";\r\n\r\ncontract Running is Owned\r\n{\r\n    bool private running;\r\n\r\n    event LogRunningChanged(bool oldRunning, bool newRunning);\r\n\r\n    modifier whenRunning\r\n    {\r\n        require(running, \"We have stopped\");\r\n        _;\r\n    }\r\n\r\n    modifier whenPaused\r\n    {\r\n        require(!running, \"We are paused\");\r\n        _;\r\n    }\r\n\r\n    constructor(bool _running) public\r\n    {\r\n        running = _running;\r\n    }\r\n\r\n    function getRunning() public view returns(bool)\r\n    {\r\n        return running;\r\n    }\r\n\r\n    function pause() public\r\n        whenRunning\r\n    {\r\n        setRunning(false);\r\n    }\r\n\r\n    function resume() public\r\n        whenPaused\r\n    {\r\n        setRunning(true);\r\n    }\r\n\r\n    function setRunning(bool newRunning)\r\n        public\r\n        isOwner\r\n    {\r\n        emit LogRunningChanged(running, newRunning);\r\n        running = newRunning;\r\n    }\r\n\r\n    function kill()\r\n        public\r\n        isOwner\r\n        whenPaused\r\n    {\r\n        selfdestruct(msg.sender);\r\n    }\r\n}",
  "sourcePath": "/Users/andy/Documents/GitHub/rockpaper/contracts/Running.sol",
  "compiler": {
    "name": "solc",
    "version": "0.5.0+commit.1d4f565a.Emscripten.clang"
  },
  "schemaVersion": "3.0.3",
  "updatedAt": "2019-05-23T21:28:10.015Z",
  "devdoc": {
    "methods": {}
  },
  "userdoc": {
    "methods": {}
  }
}